{
  "contractName": "Insurance",
  "abi": [
    {
      "inputs": [
        {
          "internalType": "address",
          "name": "",
          "type": "address"
        },
        {
          "internalType": "uint256",
          "name": "",
          "type": "uint256"
        }
      ],
      "name": "policies",
      "outputs": [
        {
          "internalType": "string",
          "name": "name",
          "type": "string"
        },
        {
          "internalType": "string",
          "name": "typeOfCrop",
          "type": "string"
        },
        {
          "internalType": "uint256",
          "name": "timePeriod",
          "type": "uint256"
        },
        {
          "internalType": "uint256",
          "name": "nextPremiumTime",
          "type": "uint256"
        },
        {
          "internalType": "uint256",
          "name": "coverageAmount",
          "type": "uint256"
        },
        {
          "internalType": "uint256",
          "name": "premiumAmount",
          "type": "uint256"
        },
        {
          "internalType": "uint256",
          "name": "noOfPremiumLeft",
          "type": "uint256"
        },
        {
          "internalType": "string",
          "name": "phoneNo",
          "type": "string"
        },
        {
          "internalType": "bool",
          "name": "isClaimed",
          "type": "bool"
        },
        {
          "internalType": "bool",
          "name": "isVerified",
          "type": "bool"
        },
        {
          "internalType": "address",
          "name": "verificationDoneBy",
          "type": "address"
        },
        {
          "internalType": "string",
          "name": "position",
          "type": "string"
        }
      ],
      "stateMutability": "view",
      "type": "function",
      "constant": true
    },
    {
      "inputs": [
        {
          "internalType": "string",
          "name": "_name",
          "type": "string"
        },
        {
          "internalType": "string",
          "name": "_typeOfCrop",
          "type": "string"
        },
        {
          "internalType": "uint256",
          "name": "_timePeriod",
          "type": "uint256"
        },
        {
          "internalType": "string",
          "name": "_phoneNo",
          "type": "string"
        },
        {
          "internalType": "string",
          "name": "position",
          "type": "string"
        }
      ],
      "name": "addPolicy",
      "outputs": [],
      "stateMutability": "nonpayable",
      "type": "function"
    },
    {
      "inputs": [],
      "name": "getCoverageAmount",
      "outputs": [
        {
          "internalType": "uint256",
          "name": "",
          "type": "uint256"
        }
      ],
      "stateMutability": "pure",
      "type": "function",
      "constant": true
    },
    {
      "inputs": [],
      "name": "getPremiumAmount",
      "outputs": [
        {
          "internalType": "uint256",
          "name": "",
          "type": "uint256"
        }
      ],
      "stateMutability": "pure",
      "type": "function",
      "constant": true
    },
    {
      "inputs": [
        {
          "internalType": "uint256",
          "name": "policyId",
          "type": "uint256"
        }
      ],
      "name": "payPremium",
      "outputs": [],
      "stateMutability": "payable",
      "type": "function",
      "payable": true
    },
    {
      "inputs": [
        {
          "internalType": "address",
          "name": "verifier",
          "type": "address"
        },
        {
          "internalType": "address",
          "name": "policyHolder",
          "type": "address"
        },
        {
          "internalType": "uint256",
          "name": "policyId",
          "type": "uint256"
        }
      ],
      "name": "verifyPolicy",
      "outputs": [
        {
          "internalType": "bool",
          "name": "",
          "type": "bool"
        }
      ],
      "stateMutability": "nonpayable",
      "type": "function"
    },
    {
      "inputs": [
        {
          "internalType": "address",
          "name": "policyHolder",
          "type": "address"
        }
      ],
      "name": "getPolicyDetails",
      "outputs": [
        {
          "components": [
            {
              "internalType": "string",
              "name": "name",
              "type": "string"
            },
            {
              "internalType": "string",
              "name": "typeOfCrop",
              "type": "string"
            },
            {
              "internalType": "uint256",
              "name": "timePeriod",
              "type": "uint256"
            },
            {
              "internalType": "uint256",
              "name": "nextPremiumTime",
              "type": "uint256"
            },
            {
              "internalType": "uint256",
              "name": "coverageAmount",
              "type": "uint256"
            },
            {
              "internalType": "uint256",
              "name": "premiumAmount",
              "type": "uint256"
            },
            {
              "internalType": "uint256",
              "name": "noOfPremiumLeft",
              "type": "uint256"
            },
            {
              "internalType": "string",
              "name": "phoneNo",
              "type": "string"
            },
            {
              "internalType": "bool",
              "name": "isClaimed",
              "type": "bool"
            },
            {
              "internalType": "bool",
              "name": "isVerified",
              "type": "bool"
            },
            {
              "internalType": "address",
              "name": "verificationDoneBy",
              "type": "address"
            },
            {
              "internalType": "string",
              "name": "position",
              "type": "string"
            }
          ],
          "internalType": "struct Insurance.Policy[]",
          "name": "",
          "type": "tuple[]"
        }
      ],
      "stateMutability": "view",
      "type": "function",
      "constant": true
    },
    {
      "inputs": [
        {
          "internalType": "address payable",
          "name": "policyHolder",
          "type": "address"
        },
        {
          "internalType": "uint256",
          "name": "policyId",
          "type": "uint256"
        }
      ],
      "name": "claimPolicy",
      "outputs": [
        {
          "internalType": "bool",
          "name": "",
          "type": "bool"
        }
      ],
      "stateMutability": "nonpayable",
      "type": "function"
    }
  ],
  "bytecode": "0x608060405234801561001057600080fd5b506115fd806100206000396000f3fe60806040526004361061007b5760003560e01c80635ad4c5bc1161004e5780635ad4c5bc1461010d578063880a5c3a1461013a578063903bdbfc1461014f57806390b4f12b1461016f5761007b565b80631085ec081461008057806335e8d45a146100a25780634364b26e146100cd57806345f23e29146100e0575b600080fd5b34801561008c57600080fd5b506100a061009b3660046110a2565b6101a7565b005b3480156100ae57600080fd5b506100b761033c565b6040516100c491906115a6565b60405180910390f35b6100a06100db366004611154565b610342565b3480156100ec57600080fd5b506101006100fb366004611009565b6105da565b6040516100c491906111ca565b34801561011957600080fd5b5061012d610128366004611025565b610924565b6040516100c491906112ff565b34801561014657600080fd5b506100b7610a71565b34801561015b57600080fd5b5061012d61016a366004611050565b610a76565b34801561017b57600080fd5b5061018f61018a366004611090565b610b85565b6040516100c49c9b9a9998979695949392919061130a565b6101af610e85565b60405180610180016040528087815260200186815260200185815260200142600a0181526020016101de61033c565b81526020016101eb610a71565b8152600c60208083019190915260408083018790526000606084018190526080840181905260a0840181905260c09093018690523383528282528220805460018101825590835291819020835180519495508594600a909402909101926102559284920190610ef3565b50602082810151805161026e9260018501920190610ef3565b5060408201516002820155606082015160038201556080820151600482015560a0820151600582015560c0820151600682015560e082015180516102bc916007840191602090910190610ef3565b50610100828101516008830180546101208601516101408701516001600160a01b0316620100000262010000600160b01b031991151590950261ff001994151560ff19909316929092179390931617919091169190911790556101608201518051610331916009840191602090910190610ef3565b505050505050505050565b60055b90565b3360009081526020819052604090205481106103795760405162461bcd60e51b8152600401610370906114d6565b60405180910390fd5b33600090815260208190526040812080548390811061039457fe5b90600052602060002090600a02016005015490506000806000336001600160a01b03166001600160a01b0316815260200190815260200160002083815481106103d957fe5b90600052602060002090600a02016006015490506000806000336001600160a01b03166001600160a01b03168152602001908152602001600020848154811061041e57fe5b600091825260208083206008600a9093020191909101543383529082905260408220805460ff9092169350908690811061045457fe5b90600052602060002090600a02016003015490506000806000336001600160a01b03166001600160a01b03168152602001908152602001600020868154811061049957fe5b90600052602060002090600a020160080160019054906101000a900460ff169050806104d75760405162461bcd60e51b815260040161037090611529565b428211156104f75760405162461bcd60e51b815260040161037090611560565b61050f85670de0b6b3a764000063ffffffff610e4416565b341461052d5760405162461bcd60e51b8152600401610370906113af565b6000841161054d5760405162461bcd60e51b815260040161037090611468565b821561056b5760405162461bcd60e51b8152600401610370906113e6565b33600090815260208190526040902080548790811061058657fe5b60009182526020808320600a928302016006018054600019019055338352829052604090912080544290920191889081106105bd57fe5b90600052602060002090600a020160030181905550505050505050565b6001600160a01b038116600090815260208181526040808320805482518185028101850190935280835260609492939192909184015b8282101561091957600084815260209081902060408051600a8602909201805460026001821615610100026000190190911604601f810185900490940283016101a09081019092526101808301848152929390928492909184918401828280156106bb5780601f10610690576101008083540402835291602001916106bb565b820191906000526020600020905b81548152906001019060200180831161069e57829003601f168201915b50505050508152602001600182018054600181600116156101000203166002900480601f01602080910402602001604051908101604052809291908181526020018280546001816001161561010002031660029004801561075d5780601f106107325761010080835404028352916020019161075d565b820191906000526020600020905b81548152906001019060200180831161074057829003601f168201915b505050505081526020016002820154815260200160038201548152602001600482015481526020016005820154815260200160068201548152602001600782018054600181600116156101000203166002900480601f0160208091040260200160405190810160405280929190818152602001828054600181600116156101000203166002900480156108315780601f1061080657610100808354040283529160200191610831565b820191906000526020600020905b81548152906001019060200180831161081457829003601f168201915b5050509183525050600882015460ff80821615156020808501919091526101008084049092161515604080860191909152620100009093046001600160a01b031660608501526009850180548451600260018316159095026000190190911693909304601f81018390048302840183019094528383526080909401939192908301828280156109015780601f106108d657610100808354040283529160200191610901565b820191906000526020600020905b8154815290600101906020018083116108e457829003601f168201915b50505050508152505081526020019060010190610610565b505050509050919050565b60006001600160a01b038316331461094e5760405162461bcd60e51b815260040161037090611501565b6001600160a01b03831660009081526020819052604090205482106109855760405162461bcd60e51b81526004016103709061149f565b6001600160a01b0383166000908152602081905260409020805460019190849081106109ad57fe5b90600052602060002090600a020160080160006101000a81548160ff021916908315150217905550826001600160a01b03166108fc610a3d670de0b6b3a7640000600080886001600160a01b03166001600160a01b031681526020019081526020016000208681548110610a1d57fe5b90600052602060002090600a020160040154610e4490919063ffffffff16565b6040518115909202916000818181858888f19350505050158015610a65573d6000803e3d6000fd5b50600190505b92915050565b600190565b60006001600160a01b0384163314610aa05760405162461bcd60e51b815260040161037090611501565b6001600160a01b0383166000908152602081905260409020548210610ad75760405162461bcd60e51b81526004016103709061149f565b6001600160a01b0383166000908152602081905260409020805485919084908110610afe57fe5b60009182526020808320600a92909202909101600801805462010000600160b01b031916620100006001600160a01b03958616021790559185168152908190526040902080546001919084908110610b5257fe5b90600052602060002090600a020160080160016101000a81548160ff021916908315150217905550600190509392505050565b60006020528160005260406000208181548110610b9e57fe5b6000918252602091829020600a919091020180546040805160026001841615610100026000190190931692909204601f810185900485028301850190915280825291945092508391830182828015610c375780601f10610c0c57610100808354040283529160200191610c37565b820191906000526020600020905b815481529060010190602001808311610c1a57829003601f168201915b505050505090806001018054600181600116156101000203166002900480601f016020809104026020016040519081016040528092919081815260200182805460018160011615610100020316600290048015610cd55780601f10610caa57610100808354040283529160200191610cd5565b820191906000526020600020905b815481529060010190602001808311610cb857829003601f168201915b505050600280850154600386015460048701546005880154600689015460078a018054604080516020601f600019610100600187161502019094169a909a049283018a90048a0281018a019091528181529a9b969a95995093975091959094939290830182828015610d885780601f10610d5d57610100808354040283529160200191610d88565b820191906000526020600020905b815481529060010190602001808311610d6b57829003601f168201915b5050505060088301546009840180546040805160206002610100600186161581026000190190951604601f8101829004820283018201909352828252969760ff80871698948704169650620100009095046001600160a01b031694939092909190830182828015610e3a5780601f10610e0f57610100808354040283529160200191610e3a565b820191906000526020600020905b815481529060010190602001808311610e1d57829003601f168201915b505050505090508c565b600082610e5357506000610a6b565b82820282848281610e6057fe5b0414610e7e5760405162461bcd60e51b815260040161037090611427565b9392505050565b604051806101800160405280606081526020016060815260200160008152602001600081526020016000815260200160008152602001600081526020016060815260200160001515815260200160001515815260200160006001600160a01b03168152602001606081525090565b828054600181600116156101000203166002900490600052602060002090601f016020900481019282601f10610f3457805160ff1916838001178555610f61565b82800160010185558215610f61579182015b82811115610f61578251825591602001919060010190610f46565b50610f6d929150610f71565b5090565b61033f91905b80821115610f6d5760008155600101610f77565b600082601f830112610f9b578081fd5b813567ffffffffffffffff80821115610fb2578283fd5b604051601f8301601f191681016020018281118282101715610fd2578485fd5b604052828152925082848301602001861015610fed57600080fd5b8260208601602083013760006020848301015250505092915050565b60006020828403121561101a578081fd5b8135610e7e816115af565b60008060408385031215611037578081fd5b8235611042816115af565b946020939093013593505050565b600080600060608486031215611064578081fd5b833561106f816115af565b9250602084013561107f816115af565b929592945050506040919091013590565b60008060408385031215611037578182fd5b600080600080600060a086880312156110b9578081fd5b853567ffffffffffffffff808211156110d0578283fd5b6110dc89838a01610f8b565b965060208801359150808211156110f1578283fd5b6110fd89838a01610f8b565b9550604088013594506060880135915080821115611119578283fd5b61112589838a01610f8b565b9350608088013591508082111561113a578283fd5b5061114788828901610f8b565b9150509295509295909350565b600060208284031215611165578081fd5b5035919050565b6001600160a01b03169052565b15159052565b60008151808452815b818110156111a457602081850181015186830182015201611188565b818111156111b55782602083870101525b50601f01601f19169290920160200192915050565b6000602080830181845280855180835260408601915060408482028701019250838701855b828110156112f257603f19888603018452815161018081518188526112168289018261117f565b8984015192508881038a8a015261122d818461117f565b91505060408301516040890152606083015160608901526080830151608089015260a083015160a089015260c083015160c089015260e0830151915087810360e089015261127b818361117f565b6101009250828401519150611292838a0183611179565b61012092508284015191506112a9838a0183611179565b61014092508284015191506112c0838a018361116c565b6101609250828401519150888103838a01526112dc818361117f565b98505050948701945050908501906001016111ef565b5092979650505050505050565b901515815260200190565b6000610180825261131f61018083018f61117f565b8281036020840152611331818f61117f565b8d60408501528c60608501528b60808501528a60a08501528960c085015283810360e0850152611361818a61117f565b91505086151561010084015261137b610120840187611179565b61138961014084018661116c565b82810361016084015261139c818561117f565b9f9e505050505050505050505050505050565b6020808252601b908201527f496e73756666696369656e74207072656d69756d20616d6f756e740000000000604082015260600190565b60208082526021908201527f596f7520616c726561647920636c61696d656420796f7572207072656d69756d6040820152607360f81b606082015260800190565b60208082526021908201527f536166654d6174683a206d756c7469706c69636174696f6e206f766572666c6f6040820152607760f81b606082015260800190565b6020808252601a908201527f596f75207061696420616c6c20796f7572207072656d69756d73000000000000604082015260600190565b60208082526018908201527f496e76616c696420706f6c6963792049442f486f6c6465720000000000000000604082015260600190565b602080825260119082015270125b9d985b1a59081c1bdb1a58de481251607a1b604082015260600190565b6020808252600e908201526d2bb937b733903b32b934b334b2b960911b604082015260600190565b6020808252601e908201527f596f757220706f6c696379207374696c6c206e6f742076657269666965640000604082015260600190565b60208082526026908201527f596f7572206e657874207072656d69756d206973206e6f7420616374697661746040820152651959081e595d60d21b606082015260800190565b90815260200190565b6001600160a01b03811681146115c457600080fd5b5056fea2646970667358221220311f44fba209859991d552a1f95657ecfc0ace2ab301810e1865451c9030cf0164736f6c63430006000033",
  "source": "// SPDX-License-Identifier: GPL-3.0\r\n\r\n\r\n// Enable optimizer\r\n pragma solidity >=0.6.0 <0.8.0;\r\n pragma experimental ABIEncoderV2;\r\n\r\nimport \"@openzeppelin/contracts/math/SafeMath.sol\";\r\n\r\ncontract Insurance{\r\n    using SafeMath for uint256;\r\n\r\n    struct Policy{\r\n        string name;\r\n        string typeOfCrop;\r\n        uint timePeriod;\r\n        uint nextPremiumTime;\r\n        uint coverageAmount;\r\n        uint premiumAmount; // 5% \r\n        uint noOfPremiumLeft;\r\n        \r\n        string phoneNo;\r\n        bool isClaimed;\r\n        bool isVerified;\r\n        \r\n        address verificationDoneBy;\r\n        string position;\r\n    }\r\n\r\n    mapping (address => Policy[]) public policies; \r\n\r\n    // \"Pravin\",20,\"Rice\",12,123445\r\n    function addPolicy(string memory _name, string memory _typeOfCrop, uint _timePeriod\r\n    , string memory _phoneNo, string memory position) public  {\r\n        Policy memory p = Policy(\r\n            _name,\r\n            _typeOfCrop,\r\n            _timePeriod,\r\n            block.timestamp + 10, // 2592000 per month\r\n            getCoverageAmount(),\r\n            getPremiumAmount(),\r\n            12,\r\n\r\n            _phoneNo,\r\n            false,\r\n            false,\r\n            address(0),\r\n            position\r\n        );\r\n\r\n        policies[msg.sender].push(p);\r\n    }\r\n\r\n    function getCoverageAmount() public pure returns(uint){\r\n        // Code for calculating the coverage amount\r\n        return 5;\r\n    }\r\n\r\n    function getPremiumAmount() public pure returns(uint){\r\n        // code for calculating premium amount based on coverage amount\r\n        return 1;\r\n    }\r\n\r\n    function payPremium(uint policyId) public payable {\r\n        require(policies[msg.sender].length > policyId, \"Invalid policy ID\");\r\n\r\n\r\n        uint premiumAmount = policies[msg.sender][policyId].premiumAmount;\r\n        uint noOfPremiumLeft = policies[msg.sender][policyId].noOfPremiumLeft;\r\n        bool isClaimed = policies[msg.sender][policyId].isClaimed;\r\n        uint nextPremiumTime = policies[msg.sender][policyId].nextPremiumTime;\r\n        bool isVerified = policies[msg.sender][policyId].isVerified;\r\n\r\n        require(isVerified, \"Your policy still not verified\");\r\n        require(nextPremiumTime <= block.timestamp, \"Your next premium is not activated yet\");\r\n        require(msg.value == premiumAmount.mul(1 ether), \"Insufficient premium amount\");\r\n        require(noOfPremiumLeft > 0, \"You paid all your premiums\");\r\n        require(!isClaimed, \"You already claimed your premiums\");\r\n\r\n        policies[msg.sender][policyId].noOfPremiumLeft--;\r\n        policies[msg.sender][policyId].nextPremiumTime = block.timestamp + 10;// 2592000\r\n\r\n        // _reciver.transfer(premiumAmount.mul(1 ether));\r\n    }\r\n\r\n    function verifyPolicy(address verifier, address policyHolder, uint policyId) public returns(bool){\r\n        // match the verifier\r\n        require(verifier == msg.sender, \"Wrong verifier\");\r\n        require(policies[policyHolder].length > policyId, \"Invalid policy ID/Holder\");\r\n\r\n        policies[policyHolder][policyId].verificationDoneBy = verifier;\r\n        policies[policyHolder][policyId].isVerified = true;\r\n\r\n        return true;\r\n    }\r\n\r\n    function getPolicyDetails(address policyHolder) public view returns (Policy[] memory){\r\n        return policies[policyHolder];\r\n    }\r\n\r\n    function claimPolicy(address payable policyHolder, uint policyId) public returns(bool){\r\n        require(policyHolder == msg.sender, \"Wrong verifier\");\r\n        require(policies[policyHolder].length > policyId, \"Invalid policy ID/Holder\");\r\n        \r\n        policies[policyHolder][policyId].isClaimed = true;\r\n        policyHolder.transfer(policies[policyHolder][policyId].coverageAmount.mul(1 ether));\r\n\r\n        return true;\r\n    }\r\n}",
  "sourcePath": "D:\\Block Assure\\contracts\\Insurance.sol",
  "compiler": {
    "name": "solc",
    "version": "0.6.0+commit.26b70077.Emscripten.clang"
  },
  "schemaVersion": "3.4.16",
  "updatedAt": "2023-10-17T20:53:06.258Z",
  "networkType": "ethereum",
  "devdoc": {
    "methods": {}
  },
  "userdoc": {
    "methods": {}
  }
}